{
  "contractName": "Errors",
  "abi": [
    {
      "constant": true,
      "inputs": [],
      "name": "suppliedZeroWei",
      "outputs": [
        {
          "internalType": "string",
          "name": "",
          "type": "string"
        }
      ],
      "payable": false,
      "stateMutability": "pure",
      "type": "function"
    }
  ],
  "bytecode": "0x61013f610026600b82828239805160001a60731461001957fe5b30600052607381538281f3fe7300000000000000000000000000000000000000003014608060405260043610610051577c0100000000000000000000000000000000000000000000000000000000600035046361e0b2328114610056575b600080fd5b61005e6100d3565b6040805160208082528351818301528351919283929083019185019080838360005b83811015610098578181015183820152602001610080565b50505050905090810190601f1680156100c55780820380516001836020036101000a031916815260200191505b509250505060405180910390f35b60408051808201909152601181527f737570706c696564207a65726f2057656900000000000000000000000000000060208201529056fea265627a7a72315820a876db30355afa24ea7db4ef7c74af51a4e7da7edf75fe311bddbd98397293e764736f6c634300050c0032",
  "source": "pragma solidity 0.5.12;\r\n\r\n/**\r\n* @title Errors Library\r\n* @notice Error messages used by DaiFi\r\n* @author DaiFi\r\n*/\r\nlibrary Errors {\r\n    function suppliedZeroWei() public pure returns (string memory) { return 'supplied zero Wei'; }\r\n}\r\n",
  "sourcePath": "/mnt/c/Users/Gareth/Documents/GitHub/DaiFi/contracts/lib/Errors.sol",
  "compiler": {
    "name": "solc",
    "version": "0.5.12+commit.7709ece9.Emscripten.clang"
  },
  "schemaVersion": "3.0.17",
  "updatedAt": "2019-11-08T00:31:45.107Z",
  "networkType": "ethereum",
  "devdoc": {
    "author": "DaiFi",
    "methods": {},
    "title": "Errors Library"
  },
  "userdoc": {
    "methods": {},
    "notice": "Error messages used by DaiFi"
  }
}